{
  "contractName": "AssetTracker",
  "abi": [
    {
      "constant": true,
      "inputs": [
        {
          "name": "",
          "type": "address"
        }
      ],
      "name": "IdentityStore",
      "outputs": [
        {
          "name": "name",
          "type": "string"
        },
        {
          "name": "email",
          "type": "string"
        },
        {
          "name": "password",
          "type": "string"
        },
        {
          "name": "position",
          "type": "string"
        },
        {
          "name": "addr",
          "type": "address"
        },
        {
          "name": "assetCount",
          "type": "uint256"
        }
      ],
      "payable": false,
      "stateMutability": "view",
      "type": "function",
      "signature": "0x4abacd6f"
    },
    {
      "anonymous": false,
      "inputs": [
        {
          "indexed": false,
          "name": "name",
          "type": "string"
        },
        {
          "indexed": false,
          "name": "email",
          "type": "string"
        },
        {
          "indexed": false,
          "name": "position",
          "type": "string"
        }
      ],
      "name": "IdentityCreate",
      "type": "event",
      "signature": "0x133561d57163d827b6672878a1fbdd752b3d3a77b2170dca0fff4fdaf4dcfe44"
    },
    {
      "anonymous": false,
      "inputs": [
        {
          "indexed": false,
          "name": "name",
          "type": "string"
        },
        {
          "indexed": false,
          "name": "email",
          "type": "string"
        },
        {
          "indexed": false,
          "name": "position",
          "type": "string"
        }
      ],
      "name": "IdentityLogin",
      "type": "event",
      "signature": "0xbd0bf74a501c299a425b747329b1a59b146f5ec821ff5ce9b7d282f7f448a34c"
    },
    {
      "constant": false,
      "inputs": [
        {
          "name": "_name",
          "type": "string"
        },
        {
          "name": "_email",
          "type": "string"
        },
        {
          "name": "_password",
          "type": "string"
        },
        {
          "name": "_position",
          "type": "string"
        }
      ],
      "name": "createIdentity",
      "outputs": [
        {
          "name": "",
          "type": "uint256"
        }
      ],
      "payable": false,
      "stateMutability": "nonpayable",
      "type": "function",
      "signature": "0xb39e31a5"
    },
    {
      "constant": false,
      "inputs": [
        {
          "name": "_password",
          "type": "string"
        }
      ],
      "name": "logInIdentity",
      "outputs": [
        {
          "name": "",
          "type": "uint256"
        }
      ],
      "payable": false,
      "stateMutability": "nonpayable",
      "type": "function",
      "signature": "0x02e07998"
    }
  ],
  "bytecode": "0x608060405234801561001057600080fd5b50611481806100206000396000f3fe608060405260043610610057576000357c0100000000000000000000000000000000000000000000000000000000900463ffffffff16806302e079981461005c5780634abacd6f14610138578063b39e31a514610380575b600080fd5b34801561006857600080fd5b506101226004803603602081101561007f57600080fd5b810190808035906020019064010000000081111561009c57600080fd5b8201836020820111156100ae57600080fd5b803590602001918460018302840111640100000000831117156100d057600080fd5b91908080601f016020809104026020016040519081016040528093929190818152602001838380828437600081840152601f19601f820116905080830192505050505050509192919290505050610621565b6040518082815260200191505060405180910390f35b34801561014457600080fd5b506101876004803603602081101561015b57600080fd5b81019080803573ffffffffffffffffffffffffffffffffffffffff169060200190929190505050610d7c565b60405180806020018060200180602001806020018773ffffffffffffffffffffffffffffffffffffffff1673ffffffffffffffffffffffffffffffffffffffff16815260200186815260200185810385528b818151815260200191508051906020019080838360005b8381101561020b5780820151818401526020810190506101f0565b50505050905090810190601f1680156102385780820380516001836020036101000a031916815260200191505b5085810384528a818151815260200191508051906020019080838360005b83811015610271578082015181840152602081019050610256565b50505050905090810190601f16801561029e5780820380516001836020036101000a031916815260200191505b50858103835289818151815260200191508051906020019080838360005b838110156102d75780820151818401526020810190506102bc565b50505050905090810190601f1680156103045780820380516001836020036101000a031916815260200191505b50858103825288818151815260200191508051906020019080838360005b8381101561033d578082015181840152602081019050610322565b50505050905090810190601f16801561036a5780820380516001836020036101000a031916815260200191505b509a505050505050505050505060405180910390f35b34801561038c57600080fd5b5061060b600480360360808110156103a357600080fd5b81019080803590602001906401000000008111156103c057600080fd5b8201836020820111156103d257600080fd5b803590602001918460018302840111640100000000831117156103f457600080fd5b91908080601f016020809104026020016040519081016040528093929190818152602001838380828437600081840152601f19601f8201169050808301925050505050505091929192908035906020019064010000000081111561045757600080fd5b82018360208201111561046957600080fd5b8035906020019184600183028401116401000000008311171561048b57600080fd5b91908080601f016020809104026020016040519081016040528093929190818152602001838380828437600081840152601f19601f820116905080830192505050505050509192919290803590602001906401000000008111156104ee57600080fd5b82018360208201111561050057600080fd5b8035906020019184600183028401116401000000008311171561052257600080fd5b91908080601f016020809104026020016040519081016040528093929190818152602001838380828437600081840152601f19601f8201169050808301925050505050505091929192908035906020019064010000000081111561058557600080fd5b82018360208201111561059757600080fd5b803590602001918460018302840111640100000000831117156105b957600080fd5b91908080601f016020809104026020016040519081016040528093929190818152602001838380828437600081840152601f19601f820116905080830192505050505050509192919290505050611038565b6040518082815260200191505060405180910390f35b60008073ffffffffffffffffffffffffffffffffffffffff166000803373ffffffffffffffffffffffffffffffffffffffff1673ffffffffffffffffffffffffffffffffffffffff16815260200190815260200160002060040160009054906101000a900473ffffffffffffffffffffffffffffffffffffffff1673ffffffffffffffffffffffffffffffffffffffff1614151515610728576040517f08c379a000000000000000000000000000000000000000000000000000000000815260040180806020018281038252601a8152602001807f596f7520446f6e2774204861766520416e204163636f756e742100000000000081525060200191505060405180910390fd5b60606000803373ffffffffffffffffffffffffffffffffffffffff1673ffffffffffffffffffffffffffffffffffffffff1681526020019081526020016000206002018054600181600116156101000203166002900480601f0160208091040260200160405190810160405280929190818152602001828054600181600116156101000203166002900480156107ff5780601f106107d4576101008083540402835291602001916107ff565b820191906000526020600020905b8154815290600101906020018083116107e257829003601f168201915b50505050509050826040516020018082805190602001908083835b60208310151561083f578051825260208201915060208101905060208303925061081a565b6001836020036101000a03801982511681845116808217855250505050505090500191505060405160208183030381529060405280519060200120816040516020018082805190602001908083835b6020831015156108b3578051825260208201915060208101905060208303925061088e565b6001836020036101000a03801982511681845116808217855250505050505090500191505060405160208183030381529060405280519060200120141515610963576040517f08c379a00000000000000000000000000000000000000000000000000000000081526004018080602001828103825260108152602001807f496e76616c69642050617373776f72640000000000000000000000000000000081525060200191505060405180910390fd5b60606000803373ffffffffffffffffffffffffffffffffffffffff1673ffffffffffffffffffffffffffffffffffffffff1681526020019081526020016000206000018054600181600116156101000203166002900480601f016020809104026020016040519081016040528092919081815260200182805460018160011615610100020316600290048015610a3a5780601f10610a0f57610100808354040283529160200191610a3a565b820191906000526020600020905b815481529060010190602001808311610a1d57829003601f168201915b5050505050905060606000803373ffffffffffffffffffffffffffffffffffffffff1673ffffffffffffffffffffffffffffffffffffffff1681526020019081526020016000206001018054600181600116156101000203166002900480601f016020809104026020016040519081016040528092919081815260200182805460018160011615610100020316600290048015610b185780601f10610aed57610100808354040283529160200191610b18565b820191906000526020600020905b815481529060010190602001808311610afb57829003601f168201915b5050505050905060606000803373ffffffffffffffffffffffffffffffffffffffff1673ffffffffffffffffffffffffffffffffffffffff1681526020019081526020016000206003018054600181600116156101000203166002900480601f016020809104026020016040519081016040528092919081815260200182805460018160011615610100020316600290048015610bf65780601f10610bcb57610100808354040283529160200191610bf6565b820191906000526020600020905b815481529060010190602001808311610bd957829003601f168201915b505050505090507fbd0bf74a501c299a425b747329b1a59b146f5ec821ff5ce9b7d282f7f448a34c83838360405180806020018060200180602001848103845287818151815260200191508051906020019080838360005b83811015610c69578082015181840152602081019050610c4e565b50505050905090810190601f168015610c965780820380516001836020036101000a031916815260200191505b50848103835286818151815260200191508051906020019080838360005b83811015610ccf578082015181840152602081019050610cb4565b50505050905090810190601f168015610cfc5780820380516001836020036101000a031916815260200191505b50848103825285818151815260200191508051906020019080838360005b83811015610d35578082015181840152602081019050610d1a565b50505050905090810190601f168015610d625780820380516001836020036101000a031916815260200191505b50965050505050505060405180910390a150505050919050565b6000602052806000526040600020600091509050806000018054600181600116156101000203166002900480601f016020809104026020016040519081016040528092919081815260200182805460018160011615610100020316600290048015610e285780601f10610dfd57610100808354040283529160200191610e28565b820191906000526020600020905b815481529060010190602001808311610e0b57829003601f168201915b505050505090806001018054600181600116156101000203166002900480601f016020809104026020016040519081016040528092919081815260200182805460018160011615610100020316600290048015610ec65780601f10610e9b57610100808354040283529160200191610ec6565b820191906000526020600020905b815481529060010190602001808311610ea957829003601f168201915b505050505090806002018054600181600116156101000203166002900480601f016020809104026020016040519081016040528092919081815260200182805460018160011615610100020316600290048015610f645780601f10610f3957610100808354040283529160200191610f64565b820191906000526020600020905b815481529060010190602001808311610f4757829003601f168201915b505050505090806003018054600181600116156101000203166002900480601f0160208091040260200160405190810160405280929190818152602001828054600181600116156101000203166002900480156110025780601f10610fd757610100808354040283529160200191611002565b820191906000526020600020905b815481529060010190602001808311610fe557829003601f168201915b5050505050908060040160009054906101000a900473ffffffffffffffffffffffffffffffffffffffff16908060050154905086565b60008073ffffffffffffffffffffffffffffffffffffffff166000803373ffffffffffffffffffffffffffffffffffffffff1673ffffffffffffffffffffffffffffffffffffffff16815260200190815260200160002060040160009054906101000a900473ffffffffffffffffffffffffffffffffffffffff1673ffffffffffffffffffffffffffffffffffffffff1614151561113e576040517f08c379a000000000000000000000000000000000000000000000000000000000815260040180806020018281038252601c8152602001807f596f7520416c7265616479204861766520416e204163636f756e74210000000081525060200191505060405180910390fd5b60008060003373ffffffffffffffffffffffffffffffffffffffff1673ffffffffffffffffffffffffffffffffffffffff1681526020019081526020016000209050858160000190805190602001906111989291906113b0565b50848160010190805190602001906111b19291906113b0565b50838160020190805190602001906111ca9291906113b0565b50828160030190805190602001906111e39291906113b0565b50338160040160006101000a81548173ffffffffffffffffffffffffffffffffffffffff021916908373ffffffffffffffffffffffffffffffffffffffff160217905550600081600501819055507f133561d57163d827b6672878a1fbdd752b3d3a77b2170dca0fff4fdaf4dcfe4486868560405180806020018060200180602001848103845287818151815260200191508051906020019080838360005b8381101561129d578082015181840152602081019050611282565b50505050905090810190601f1680156112ca5780820380516001836020036101000a031916815260200191505b50848103835286818151815260200191508051906020019080838360005b838110156113035780820151818401526020810190506112e8565b50505050905090810190601f1680156113305780820380516001836020036101000a031916815260200191505b50848103825285818151815260200191508051906020019080838360005b8381101561136957808201518184015260208101905061134e565b50505050905090810190601f1680156113965780820380516001836020036101000a031916815260200191505b50965050505050505060405180910390a150949350505050565b828054600181600116156101000203166002900490600052602060002090601f016020900481019282601f106113f157805160ff191683800117855561141f565b8280016001018555821561141f579182015b8281111561141e578251825591602001919060010190611403565b5b50905061142c9190611430565b5090565b61145291905b8082111561144e576000816000905550600101611436565b5090565b9056fea165627a7a7230582063af0c91786887a51d0583c70de0786d97c02e7a30c596e8eb61dab4438a0d230029",
  "source": "pragma solidity >=0.5.0 <=0.7.4;\r\nimport \"./Library.sol\";\r\n\r\ncontract AssetTracker {\r\n\r\n    // // Asset mapping and counter\r\n    // mapping(uint256 => Library.Asset) public AssetStore;\r\n    // uint256 public assetCount = 0;\r\n\r\n    // Identity mapping and counter\r\n    mapping(address => Library.Identity) public IdentityStore;\r\n\r\n    // // Create Asset\r\n    // function createAsset(\r\n    //     string memory _assetUid\r\n    // ) public returns (uint256) {\r\n    //     // Requires and assets\r\n    //     assetCount++;\r\n    //     AssetStore[assetCount] = AssetLibrary.Asset(_assetUid, \"key\", msg.sender, true);\r\n    //     uint256 ind = getOwnerIndex(msg.sender);\r\n    //     IdentityStore[ind].assetCount++;\r\n    //     IdentityStore[ind].ownedAssets[IdentityStore[ind].assetCount] = AssetStore[assetCount];\r\n    //     emit AssetCreate(_assetUid,\"key\");\r\n    // }\r\n\r\n    // Sign-up function\r\n    function createIdentity(\r\n        string memory _name,\r\n        string memory _email,\r\n        string memory _password,\r\n        string memory _position\r\n    ) public returns (uint256) {\r\n        require(IdentityStore[msg.sender].addr == address(0),\"You Already Have An Account!\");\r\n        Library.Identity storage newIdentity = IdentityStore[msg.sender];\r\n        newIdentity.name = _name;\r\n        newIdentity.email = _email;\r\n        newIdentity.password = _password;\r\n        newIdentity.position = _position;\r\n        newIdentity.addr = msg.sender;\r\n        newIdentity.assetCount = 0;\r\n        emit IdentityCreate(_name, _email, _position);\r\n    }\r\n\r\n    // Login function\r\n    function logInIdentity(string memory _password) public returns (uint256) {\r\n        require(IdentityStore[msg.sender].addr != address(0),\"You Don't Have An Account!\");\r\n        string memory acc = IdentityStore[msg.sender].password;\r\n        require(keccak256(abi.encodePacked((acc))) == keccak256(abi.encodePacked((_password))),\"Invalid Password\");\r\n        string memory _name = IdentityStore[msg.sender].name;\r\n        string memory _email = IdentityStore[msg.sender].email;\r\n        string memory _position = IdentityStore[msg.sender].position;\r\n        emit IdentityLogin(_name, _email, _position);\r\n    }\r\n\r\n    // // Check if address exists\r\n    // function checkAddressExists(address addr) private view returns (bool) {\r\n    //     for (uint256 i = 1; i <= identityCount; i++) {\r\n    //         address acc = IdentityStore[i].addresser;\r\n    //         if (keccak256(abi.encodePacked((acc))) == keccak256(abi.encodePacked((addr)))) {\r\n    //             return true;\r\n    //         }\r\n    //     }\r\n    //     return false;\r\n    // }\r\n\r\n    // // Check if email exists\r\n    // function checkEmailExists(string memory _email) private view returns (bool) {\r\n    //     for (uint256 i = 1; i <= identityCount; i++) {\r\n    //         string memory acc = IdentityStore[i].email;\r\n    //         if (keccak256(abi.encodePacked((acc))) == keccak256(abi.encodePacked((_email)))) {\r\n    //             return true;\r\n    //         }\r\n    //     }\r\n    //     return false;\r\n    // }\r\n\r\n    // // Get email's index\r\n    // function getEmailIndex(string memory _email) private view returns (uint) {\r\n    //     for (uint256 i = 1; i <= identityCount; i++) {\r\n    //         string memory acc = IdentityStore[i].email;\r\n    //         if (keccak256(abi.encodePacked((acc))) == keccak256(abi.encodePacked((_email)))) {\r\n    //             return i;\r\n    //         }\r\n    //     }\r\n    // }\r\n\r\n    // // Get owner's index\r\n    // function getOwnerIndex(address addr) private view returns (uint) {\r\n    //     for (uint256 i = 1; i <= identityCount; i++) {\r\n    //         address acc = IdentityStore[i].addresser;\r\n    //         if (keccak256(abi.encodePacked((acc))) == keccak256(abi.encodePacked((addr)))) {\r\n    //             return i;\r\n    //         }\r\n    //     }\r\n    // }\r\n\r\n    // // Asset Create Event\r\n    // event AssetCreate(string assetUid, string key);\r\n\r\n    // Sign-up Event\r\n    event IdentityCreate(string name, string email, string position);\r\n\r\n    // Login Event\r\n    event IdentityLogin(string name, string email, string position);\r\n}\r\n",
  "sourcePath": "D:/Asset_Tracker_Mini_Project/contracts/AssetTracker.sol",
  "compiler": {
    "name": "solc",
    "version": "0.5.0+commit.1d4f565a.Emscripten.clang"
  },
  "schemaVersion": "3.0.1",
  "updatedAt": "2021-01-17T10:02:17.649Z",
  "devdoc": {
    "methods": {}
  },
  "userdoc": {
    "methods": {}
  }
}